:020000040800F2
:1000000008040020C50100081B02000813020008B4
:10001000170200080D020008250300080000000078
:10002000000000000000000000000000470200087F
:100030001102000800000000450200084902000803
:10004000DF010008DF010008DF010008DF01000810
:10005000DF010008DF010008DF010008DF01000800
:10006000DF010008DF010008DF010008DF010008F0
:10007000DF010008DF010008DF010008DF010008E0
:10008000DF010008DF010008DF010008DF010008D0
:10009000DF010008DF010008DF010008DF010008C0
:1000A000DF010008DF010008DF010008DF010008B0
:1000B000DF010008DF010008DF010008DF010008A0
:1000C000DF010008DF010008DF010008DF01000890
:1000D000DF010008DF010008DF010008DF01000880
:1000E000DF010008DF010008DF010008DF01000870
:1000F000DF010008DF010008DF010008DF01000860
:10010000DF010008DF010008DF010008DF0100084F
:10011000DF010008DF010008DF010008DF0100083F
:10012000DF010008DF010008DF010008DF0100082F
:10013000DF010008DF010008DF010008DF0100081F
:10014000DF010008DF010008DF010008DF0100080F
:10015000DF010008DF010008DF010008DF010008FF
:10016000DF010008DF010008DF010008DF010008EF
:10017000DF010008DF010008DF01000800000000C7
:10018000DF010008DF010008DF010008DF010008CF
:10019000DF010008DF010008DF01000800000000A7
:1001A000DF010008DF010008DF010008DFF810D0E0
:1001B00000F01AF80048004761030008AFF3008020
:1001C000080400200648804706480047FEE7FEE78F
:1001D000FEE7FEE7FEE7FEE7FEE7FEE7FEE7FEE7F7
:1001E00051020008AD010008064C074D06E0E0682A
:1001F00040F0010394E8070098471034AC42F6D36E
:10020000FFF7D8FFBC040008DC04000800BFFEE7CD
:10021000704700BFFEE700BFFEE7704710B500283B
:1002200007DA0A07140E054A00F00F031B1FD45407
:1002300003E00A07130E024A135410BD18ED00E044
:1002400000E400E07047704710B500F07DF810BD85
:1002500008B53048006840F470002E4908602E4808
:10026000006840F001002C49086000BF2A4800687F
:1002700000F002000028F9D000BF274808300068CD
:1002800040F080002449083108600020009002E01E
:100290000098401C009000985028F9D31E48083060
:1002A000006840F090001C49083108600020009070
:1002B00002E00098401C009000985028F9D300BF3D
:1002C00015480830006820F0030013490831086021
:1002D00011480068114908400F4908600846006845
:1002E00020F48020086000200B490831086000BF1E
:1002F00009480830006800200028F9D1084806495C
:10030000091D0860002004490C31086000F0AAF8BB
:1003100008BD000088ED00E000380240FFFFF6FE57
:100320001030002400BFFEE702E008C8121F08C119
:10033000002AFAD170477047002001E001C1121F66
:10034000002AFBD1704700000448006820B1034830
:100350000068401E0149086070470000040000204A
:1003600000F084F800BFFEE7002000213A4A12683E
:1003700042F48032384B1A6000BF401C364A126883
:1003800002F4003119B94FF6FF729042F5D1324AAA
:10039000126802F400320AB900BFFEE72E4A40326A
:1003A000126842F080522C4B40331A602B4A12687C
:1003B00042F44042294B1A60274A08321268264B01
:1003C00008331A601A46126842F400421A601A464C
:1003D000126842F4A0521A60214A1B1F1A601A1FA9
:1003E000126842F080721B1F1A6000BF1A4A12681E
:1003F00002F00072002AF9D0184A126842F48032E2
:10040000164B1A6000BF154A526802F48032002A67
:10041000F9D0124A126842F40032104B1A6000BF41
:100420000E4A526802F40032002AF9D00A4A083211
:10043000126822F00302084B08331A601A46126849
:1004400042F002021A6000BF034A0832126802F04A
:100450000802002AF8D070470038024000700040BF
:100460001964400910B5FFF77FFF10BD10B51248A1
:1004700000684FF47A71B0FBF1F4601EB0F1807F38
:1004800001D301200FE0601E4FF0E02148610F21F1
:100490004FF0FF30FFF7C2FE00204FF0E0218861EF
:1004A00007200861002008B100BFFEE70021481EB8
:1004B000FFF7B4FE10BD000000000020DC040008BF
:1004C000000000200800000028030008E4040008E1
:1004D00008000020000400003803000800C2EB0BF5
:0404E0000000000018
:04000005080001AD41
:00000001FF
